:020000040800F2
:100000000028002011150008CD130008D3130008A4
:10001000D9130008DF130008E513000800000000F2
:10002000000000000000000000000000EB130008CA
:10003000F713000800000000031400080F14000864
:1000400059150008591500085915000859150008D8
:1000500059150008591500085915000859150008C8
:1000600059150008591500085915000859150008B8
:1000700059150008591500085915000859150008A8
:100080005915000859150008591500085915000898
:100090005915000859150008591500085915000888
:1000A0005915000859150008591500085915000878
:1000B0001D1400085915000800000000591500081B
:1000C0005915000800000000000000005915000844
:1000D0000000000059150008591500080000000034
:1000E00059150008591500085915000800000000AE
:1000F0000000000000000000000000000000000000
:0C01000000000000000000005FF808F1A3
:10010C0010B5054C237833B9044B13B10448AFF345
:10011C0000800123237010BD54000020000000005B
:10012C00782B000808B5034B1BB103490348AFF308
:10013C00008008BD0000000058000020782B00084B
:10014C0080B400AF064B1B68012B04D1044B00227A
:10015C001A60012300E000231846BD4680BC70479E
:10016C007000002080B400AF034B01221A6000BF66
:10017C00BD4680BC704700BF7000002080B500AF4A
:10018C00234B1B68234A1360234B1B68204A1360C4
:10019C004FF40051214801F0C7FC03461A461E4B90
:1001AC001A601B4B1A681C4B1B689A422DD1184BBA
:1001BC001A68184B1B689A4227D1164B1A68184BB1
:1001CC001B689A420ED0134B1B68154A1360144BD4
:1001DC001B68002B19D1134B4FF4FA721A60FFF7FE
:1001EC00C1FF12E00F4B1B68013B0E4A13600D4B15
:1001FC001B68002B09D10B4B4FF4FA721A60084B99
:10020C001B68002B01D1FFF7ADFF00BF80BD00BF05
:10021C000400002008000020000000200010014015
:10022C000C0000201000002080B400AF064B1B68AF
:10023C00012B04D1044B00221A60012300E000239F
:10024C001846BD4680BC70477400002080B400AFD7
:10025C00034B01221A6000BFBD4680BC704700BF33
:10026C007400002080B500AF234B1B68234A136039
:10027C00234B1B68204A13604FF48041214801F046
:10028C0053FC03461A461E4B1A601B4B1A681C4B38
:10029C001B689A422DD1184B1A68184B1B689A424E
:1002AC0027D1164B1A68184B1B689A420ED0134B69
:1002BC001B68154A1360144B1B68002B19D1134B88
:1002CC004FF4FA721A60FFF7C1FF12E00F4B1B6874
:1002DC00013B0E4A13600D4B1B68002B09D10B4BD5
:1002EC004FF4FA721A60084B1B68002B01D1FFF710
:1002FC00ADFF00BF80BD00BF180000201C00002017
:10030C0014000020001001402000002024000020D8
:10031C0080B400AF064B1B68012B04D1044B0022A8
:10032C001A60012300E000231846BD4680BC7047CC
:10033C007800002080B400AF034B01221A6000BF8C
:10034C00BD4680BC704700BF7800002080B500AF70
:10035C00234B1B68234A1360234B1B68204A1360F2
:10036C004FF40041214801F0DFFB03461A461E4BB7
:10037C001A601B4B1A681C4B1B689A422DD1184BE8
:10038C001A68184B1B689A4227D1164B1A68184BDF
:10039C001B689A420ED0134B1B68154A1360144B02
:1003AC001B68002B19D1134B4FF4FA721A60FFF72C
:1003BC00C1FF12E00F4B1B68013B0E4A13600D4B43
:1003CC001B68002B09D10B4B4FF4FA721A60084BC7
:1003DC001B68002B01D1FFF7ADFF00BF80BD00BF34
:1003EC002C000020300000202800002000100140CC
:1003FC00340000203800002080B500AFC44B1B68CF
:10040C00013B042B00F2788101A252F823F000BFCB
:10041C0031040008A904000841050008D9050008AA
:10042C006F06000801224FF48071BA4801F093FB6B
:10043C0001224FF40071B74801F08DFB01224FF4FB
:10044C008061B44801F087FB01224FF40061B14890
:10045C0001F081FB01224FF48051AE4801F07BFB8F
:10046C0001224FF40051AB4801F075FBA84B02225E
:10047C001A60A94B1B68642202FB03F3184600F0B8
:10048C00D7FFA64B1B681946012000F0ABFBA24B13
:10049C001B681946032000F0A5FB36E100224FF43F
:1004AC0080719C4801F057FB01224FF40071994870
:1004BC0001F051FB01224FF48061964801F04BFB97
:1004CC0001224FF40061934801F045FB01224FF4E7
:1004DC008051904801F03FFB00224FF400518D48B1
:1004EC0001F039FB8E4B1B68012B16D1884B032274
:1004FC001A608C4B1B68642202FB03F3184600F055
:10050C0097FF884B1B681946012000F06BFB854B4D
:10051C001B681946032000F065FBFFF711FE03462C
:10052C00012B40F0EB807A4B0B221A60642000F018
:10053C007FFFE3E000224FF48071764801F00BFB63
:10054C0001224FF40071734801F005FB01224FF4B6
:10055C008061704801F0FFFA01224FF400616D4890
:10056C0001F0F9FA00224FF480516A4801F0F3FAD5
:10057C0001224FF40051674801F0EDFA684B1B68FB
:10058C00012B16D1624B04221A60634B1B68642248
:10059C0002FB03F3184600F04BFF5F4B1B68194638
:1005AC00012000F01FFB5D4B1B681946032000F077
:1005BC0019FBFFF7C5FD0346012B40F0A180544BFE
:1005CC000B221A60642000F033FF99E001224FF4F3
:1005DC008071504801F0BFFA01224FF400714D4870
:1005EC0001F0B9FA00224FF480614A4801F0B3FAE5
:1005FC0000224FF40061474801F0ADFA01224FF49C
:10060C008051444801F0A7FA01224FF400514148AF
:10061C0001F0A1FA424B1B68012B16D13C4B052271
:10062C001A60404B1B68642202FB03F3184600F06F
:10063C00FFFE3C4B1B681946012000F0D3FA394BE6
:10064C001B681946032000F0CDFAFFF779FD03462D
:10065C00012B57D12E4B0B221A60642000F0E8FEC0
:10066C0050E001224FF480712A4801F074FA002204
:10067C004FF40071274801F06EFA01224FF48061AB
:10068C00244801F068FA00224FF40061214801F07F
:10069C0062FA01224FF480511E4801F05CFA0122EB
:1006AC004FF400511B4801F056FA1D4B1B68012BEF
:1006BC0016D1174B02221A60174B1B68642202FBDF
:1006CC0003F3184600F0B4FE144B1B6819460120C6
:1006DC0000F088FA104B1B681946032000F082FAD0
:1006EC00FFF72EFD0346012B0ED1094B0B221A608E
:1006FC00642000F09DFE07E000BF06E000BF04E0B0
:10070C0000BF02E000BF00E000BF00BF80BD00BF23
:10071C007C00002000080140440000203C00002028
:10072C00E80000204000002080B582B000AF786067
:10073C007B68092B00F2808101A252F823F000BFE4
:10074C0075070008BD070008050800084D080008DB
:10075C0095080008DD080008250900086D09000847
:10076C00B5090008FD09000800220221C64801F065
:10077C00F2F900220421C44801F0EDF9002208210D
:10078C00C14801F0E8F900221021BF4801F0E3F95B
:10079C0000222021BC4801F0DEF900224021BA4899
:1007AC0001F0D9F901228021B74801F0D4F967E1B1
:1007BC0001220221B44801F0CEF900220421B248F2
:1007CC0001F0C9F900220821AF4801F0C4F9012257
:1007DC001021AD4801F0BFF901222021AA4801F0F7
:1007EC00BAF901224021A84801F0B5F90122802173
:1007FC00A54801F0B0F943E100220221A24801F022
:10080C00AAF900220421A04801F0A5F9012208212F
:10081C009D4801F0A0F9002210219B4801F09BF9A2
:10082C0000222021984801F096F901224021964897
:10083C0001F091F900228021934801F08CF91FE11D
:10084C0000220221904801F086F9002204218E48F2
:10085C0001F081F9002208218B4801F07CF900227B
:10086C001021894801F077F901222021864801F0F6
:10087C0072F901224021844801F06DF90022802197
:10088C00814801F068F9FBE0012202217E4801F069
:10089C0062F9002204217C4801F05DF90022082154
:1008AC00794801F058F901221021774801F053F9E9
:1008BC0001222021744801F04EF900224021724897
:1008CC0001F049F9002280216F4801F044F9D7E08A
:1008DC00002202216C4801F03EF9012204216A48F1
:1008EC0001F039F900220821674801F034F900229F
:1008FC001021654801F02FF901222021624801F0F6
:10090C002AF900224021604801F025F900228021BB
:10091C005D4801F020F9B3E0002202215A4801F0B1
:10092C001AF901220421584801F015F90022082176
:10093C00554801F010F900221021534801F00BF931
:10094C0000222021504801F006F9002240214E4897
:10095C0001F001F9002280214B4801F0FCF88FE0F6
:10096C0000220221484801F0F6F8002204214648F2
:10097C0001F0F1F800220821434801F0ECF80122C3
:10098C001021414801F0E7F8012220213E4801F0F6
:10099C00E2F8012240213C4801F0DDF801228021DF
:1009AC00394801F0D8F86BE000220221364801F0FA
:1009BC00D2F800220421344801F0CDF8002208219D
:1009CC00314801F0C8F8002210212F4801F0C3F87B
:1009DC00002220212C4801F0BEF8002240212A4898
:1009EC0001F0B9F800228021274801F0B4F847E063
:1009FC0000220221244801F0AEF8002204212248F2
:100A0C0001F0A9F8002208211F4801F0A4F80022E7
:100A1C0010211D4801F09FF8012220211A4801F0F5
:100A2C009AF800224021184801F095F80022802104
:100A3C00154801F090F823E001220221124801F040
:100A4C008AF801220421104801F085F801220821BE
:100A5C000D4801F080F8012210210B4801F07BF8C1
:100A6C0001222021084801F076F801224021064895
:100A7C0001F071F800228021034801F06CF800BFEE
:100A8C0000BF0837BD4680BD0008014080B582B06C
:100A9C0000AF78607B68032B00F2948001A252F8BF
:100AAC0023F000BFC10A0008F50A0008490B000832
:100ABC007D0B000800220821474801F04CF8012268
:100ACC001021454801F047F801222021424801F04D
:100ADC0042F801224021404801F03DF83F4B1B6891
:100AEC001846FFF721FE72E0012208213A4801F076
:100AFC0032F800221021384801F02DF80122202173
:100B0C00354801F028F801224021334801F023F840
:100B1C00334B1B68012B04D1304B5B681846FFF735
:100B2C0003FE2F4B1B68002B4ED12C4B5B685A1EBF
:100B3C002A494A601846FFF7F7FD45E001220821D3
:100B4C00254801F008F801221021234801F003F890
:100B5C0000222021204800F0FEFF012240211E48E7
:100B6C0000F0F9FF1D4B9B681846FFF7DDFD2EE0EA
:100B7C0001220821184800F0EEFF0122102116482E
:100B8C0000F0E9FF01222021134800F0E4FF0022CD
:100B9C004021114800F0DFFF114B1B68012B04D1E1
:100BAC000E4BDB681846FFF7BFFD0D4B1B68002B87
:100BBC000CD10A4BDB685A1E0849CA601846FFF76D
:100BCC00B3FD03E000BF02E000BF00E000BF00BFC8
:100BDC000837BD4680BD00BF000C0140D40000208A
:100BEC008000002080B483B000AF786039607B68EF
:100BFC00012B02D07B68032B26D13B68092B04DC2C
:100C0C0019497B683A6841F823203B68092B1BDDA6
:100C1C007B685A1E3B68154981FB03018910DB1761
:100C2C00CB1A114941F822303968104B83FB012350
:100C3C009A10CB17D21A13469B0013445B00CA1AA6
:100C4C0009497B6841F823207B68002B02D07B6824
:100C5C00022B04D104497B683A6841F8232000BF79
:100C6C000C37BD4680BC7047D400002067666666B2
:100C7C0080B400AF114BDB68002B0BDA0F4B9B6879
:100C8C00002B07DD0D4B0922DA600C4B9B68013BF6
:100C9C000A4A9360094B5B68002B0BDA074B1B6805
:100CAC00002B07DD054B09225A60044B1B68013BE6
:100CBC00024A136000BFBD4680BC7047D4000020C0
:100CCC0080B500AF00F044FC00F0A0F800F026F96D
:100CDC0000F0D8F8484801F085FB484B01221A6017
:100CEC00192000F0B9FBFFF787FB00F09DF9444B8E
:100CFC001B68042B02DD424B00221A60FFF7B8FF81
:100D0C00404B1B68012B10D13D4B1B68002B0CD1A9
:100D1C003B4B1B681846FFF7B9FE142000F09CFBF8
:100D2C00374B1B680133364A1360364B1B68012B5B
:100D3C0010D1334B1B68012B0CD1314B1B6818465F
:100D4C00FFF7A4FE142000F087FB2D4B1B6801332A
:100D5C002B4A13602B4B1B68012B10D1284B1B68A3
:100D6C00022B0CD1264B1B681846FFF78FFE142064
:100D7C0000F072FB224B1B680133214A1360214B9C
:100D8C001B68012B10D11E4B1B68032B0CD11C4B69
:100D9C001B681846FFF77AFE142000F05DFB184B19
:100DAC001B680133164A1360164B1B68012B9AD132
:100DBC00134B1B68042B96D100220821124800F01B
:100DCC00CAFE00221021104800F0C5FE002220218E
:100DDC000D4800F0C0FE002240210B4800F0BBFE85
:100DEC000A20FFF7A1FC142000F036FB044B1B6813
:100DFC000133034A136076E7880000207C00002052
:100E0C00D0000020F0000020000C014080B590B014
:100E1C0000AF07F1180328220021184601F09EFEAE
:100E2C003B1D00221A605A609A60DA601A61022334
:100E3C00BB610123BB621023FB6200237B6307F1C0
:100E4C001803184600F0A0FE0346002B01D000F05A
:100E5C00E5F80F237B600023BB600023FB600023BD
:100E6C003B6100237B613B1D0021184601F00EF90C
:100E7C000346002B01D000F0D1F800BF4037BD462F
:100E8C0080BD000080B586B000AF07F108030022DA
:100E9C001A605A609A60DA603B4600221A605A6007
:100EAC001D4B4FF080421A601B4B09225A601A4BA3
:100EBC0000229A60184B41F63F72DA60164B002202
:100ECC001A61154B00229A61134801F03BFA034654
:100EDC00002B01D000F0A2F84FF48053BB6007F157
:100EEC00080319460C4801F0D1FB0346002B01D036
:100EFC0000F094F800233B6000237B603B461946CE
:100F0C00054801F09DFD0346002B01D000F086F84A
:100F1C0000BF1837BD4680BD8800002080B588B062
:100F2C0000AF07F1100300221A605A609A60DA6071
:100F3C002E4B9B692D4A43F0100393612B4B9B69FD
:100F4C0003F01003FB60FB68284B9B69274A43F0B6
:100F5C0004039361254B9B6903F00403BB60BB68DE
:100F6C00224B9B69214A43F0080393611F4B9B69F9
:100F7C0003F008037B607B68002243F6FE711C487B
:100F8C0000F0E9FD002278211A4800F0E4FD4FF44E
:100F9C0060433B6100237B610123BB6107F11003BC
:100FAC001946154800F044FC43F6FE733B610123DF
:100FBC007B610023BB610223FB6107F1100319461F
:100FCC000B4800F035FC78233B6101237B61002347
:100FDC00BB610223FB6107F110031946054800F0C1
:100FEC0027FC00BF2037BD4680BD00BF001002406B
:100FFC0000080140000C01400010014080B582B097
:10100C0000AF786000F03CFAFFF7B8F8FFF72AF968
:10101C00FFF79CF900BF0837BD4680BD80B400AF18
:10102C0072B600BFFEE7000080B500AFB84B1B687E
:10103C000D2B00F0F4800D2B00F363810B2B02D0F1
:10104C000C2B76D05DE100224FF48071B14800F09A
:10105C0082FD01224FF40071AE4800F07CFD0122AC
:10106C004FF48061AB4800F076FD00224FF4006134
:10107C00A84800F070FD01224FF48051A54800F003
:10108C006AFD01224FF40051A24800F064FD0021DA
:10109C000020FFF7A7FDA04B1B6819460120FFF7A6
:1010AC00A1FD00210220FFF79DFD9B4B1B681946FB
:1010BC000320FFF797FD994B01221A60FFF740F8C8
:1010CC000346012B05D1944B00221A60904B0C2245
:1010DC001A60FFF7A9F80346012B11D18E4B1B6840
:1010EC0001338D4A13608C4B1B68632B02DD8A4BDA
:1010FC0000221A60884B1B6819460120FFF772FD0D
:10110C00FFF706F90346012B40F0FD80824B1B686C
:10111C00834A1360804B00221A6000210020FFF7E5
:10112C0061FD00210220FFF75DFD794B0C221A6056
:10113C00E9E001224FF48071764800F00CFD0022AA
:10114C004FF40071734800F006FD01224FF48061EA
:10115C00704800F000FD01224FF400616D4800F072
:10116C00FAFC00224FF480516A4800F0F4FC012292
:10117C004FF40051674800F0EEFC00210020FFF70F
:10118C0031FD654B1B6819460120FFF72BFD002133
:10119C000220FFF727FD604B1B6819460320FFF761
:1011AC0021FD5E4B01221A60FEF7CAFF0346012B9C
:1011BC0005D1594B00221A60554B0D221A60FFF7CE
:1011CC0033F80346012B11D1534B1B680133524AA0
:1011DC001360514B1B68632B02DD4F4B00221A60CE
:1011EC004D4B1B6819460120FFF7FCFCFFF790F8EC
:1011FC000346012B40F08980474B1B68494A13601A
:10120C00454B00221A6000210020FFF7EBFC002167
:10121C000220FFF7E7FC3E4B0D221A6075E001221D
:10122C004FF480713B4800F096FC01224FF40071A2
:10123C00384800F090FC00224FF48061354800F0F3
:10124C008AFC01224FF40061324800F084FC012238
:10125C004FF480512F4800F07EFC00224FF40051D7
:10126C002C4800F078FC00210020FFF7BBFC2A4B37
:10127C001B6819460120FFF7B5FC00210220FFF77F
:10128C00B1FC254B1B6819460320FFF7ABFC234B25
:10129C0001221A60FEF754FF0346012B05D11E4BA9
:1012AC0000221A601A4B01221A60FEF7BDFF03469A
:1012BC00012B0BD1184B1B680133174A1360164BCB
:1012CC001B68632B02DD144B00221A60FFF720F819
:1012DC000346012B2AD1104B1B68134A13600E4B8B
:1012EC0000221A600D4B00221A6000210020FFF72B
:1012FC0079FC00210220FFF775FC054B01221A60D6
:10130C0014E000BF13E000BF11E000BF0FE000BF0E
:10131C007C00002000080140840000208000002098
:10132C003C000020400000204400002000BF00BF13
:10133C0080BD00BF80B483B000AF0E4B9B690D4ADB
:10134C0043F0010393610B4B9B6903F001037B603A
:10135C007B68084BDB69074A43F08053D361054B2C
:10136C00DB6903F080533B603B6800BF0C37BD4624
:10137C0080BC70470010024080B584B000AF78602C
:10138C007B681B68B3F1804F13D10C4BDB690B4AA4
:10139C0043F00103D361094BDB6903F00103FB60EC
:1013AC00FB68002200211C2000F00BFA1C2000F02E
:1013BC0024FA00BF1037BD4680BD00BF00100240AC
:1013CC0080B400AFFEE780B400AFFEE780B400AF9E
:1013DC00FEE780B400AFFEE780B400AFFEE780B458
:1013EC0000AF00BFBD4680BC704780B400AF00BFEB
:1013FC00BD4680BC704780B400AF00BFBD4680BC0A
:10140C00704780B500AF00F0E9F800BF80BD000068
:10141C0080B500AF024801F031F800BF80BD00BFBD
:10142C008800002080B400AF00BFBD4680BC704770
:10143C0080B483B000AF7860054A7B681360054BBD
:10144C0000221A6000BF0C37BD4680BC704700BF3D
:10145C00E4000020E800002080B483B000AF786086
:10146C00054A7B681360054B00221A6000BF0C37DD
:10147C00BD4680BC704700BFEC000020F00000208F
:10148C0080B400AF194B1B68002B0BDD174B1B688E
:10149C00013B164A1360154B1B68002B02DC144BE6
:1014AC0001221A60134B1B68002B0BDD114B1B68C0
:1014BC00013B104A13600F4B1B68002B02DC0E4BD8
:1014CC0001221A600D4B1B68002B0BDD0B4B1B68AC
:1014DC00013B0A4A1360094B1B68002B02DC084BCA
:1014EC0001221A6000BFBD4680BC7047E40000209A
:1014FC00E8000020EC000020F0000020F4000020A8
:10150C00F8000020FFF78EFF0B480C490C4A002313
:10151C0002E0D458C4500433C4188C42F9D3094A9D
:10152C00094C002301E013600432A242FBD301F00A
:10153C00F1FAFFF7C5FB70470000002054000020B3
:10154C00BC2B00085400002000010020FEE7000026
:10155C0080B500AF084B1B68074A43F010031360BB
:10156C00032000F023F90F2000F008F8FFF7E2FE4B
:10157C000023184680BD00BF0020024080B582B019
:10158C0000AF7860124B1A68124B1B7819464FF457
:10159C007A73B3FBF1F3B2FBF3F3184600F03BF9AB
:1015AC000346002B01D001230EE07B680F2B0AD8D9
:1015BC00002279684FF0FF3000F003F9064A7B688F
:1015CC001360002300E0012318460837BD4680BD98
:1015DC0048000020500000204C00002080B400AFD8
:1015EC00054B1B781A46054B1B681344034A1360C2
:1015FC0000BFBD4680BC704750000020FC0000209E
:10160C0080B400AF024B1B681846BD4680BC7047C7
:10161C00FC00002080B485B000AF78607B6803F0DC
:10162C000703FB600C4BDB68BB60BA684FF6FF032B
:10163C001340BB60FB681A02BB68134343F0BF63E3
:10164C0043F40033BB60044ABB68D36000BF14375B
:10165C00BD4680BC704700BF00ED00E080B400AF19
:10166C00044BDB681B0A03F007031846BD4680BC1D
:10167C00704700BF00ED00E080B483B000AF0346BC
:10168C00FB7197F90730002B0BDBFB7903F01F0282
:10169C00064997F907305B09012000FA02F241F87C
:1016AC00232000BF0C37BD4680BC704700E100E032
:1016BC0080B483B000AF03463960FB7197F90730F3
:1016CC00002B0ADB3B68DAB20C4997F907301201A0
:1016DC00D2B20B4483F800230AE03B68DAB2084923
:1016EC00FB7903F00F03043B1201D2B20B441A76C0
:1016FC0000BF0C37BD4680BC704700BF00E100E066
:10170C0000ED00E080B489B000AFF860B9607A6099
:10171C00FB6803F00703FB61FB69C3F10703042BB0
:10172C0028BF0423BB61FB690433062B02D9FB6978
:10173C00033B00E000237B614FF0FF32BB6902FAF0
:10174C0003F3DA43BB681A407B699A404FF0FF31D0
:10175C007B6901FA03F3D9437B680B4013431846AA
:10176C002437BD4680BC704780B582B000AF78602E
:10177C007B68013BB3F1807F01D301230FE00A4A60
:10178C007B68013B53600F214FF0FF30FFF790FF58
:10179C00054B00229A60044B07221A60002318465E
:1017AC000837BD4680BD00BF10E000E080B582B0B8
:1017BC0000AF78607868FFF72DFF00BF0837BD4693
:1017CC0080BD80B586B000AF0346B9607A60FB730C
:1017DC0000237B61FFF742FF78617A68B96878690A
:1017EC00FFF790FF024697F90F3011461846FFF7A6
:1017FC005FFF00BF1837BD4680BD80B582B000AF1B
:10180C000346FB7197F907301846FFF735FF00BF09
:10181C000837BD4680BD80B582B000AF786078686F
:10182C00FFF7A2FF034618460837BD4680BD0000EF
:10183C0080B48BB000AF7860396000237B620023EA
:10184C003B6261E101227B6A02FA03F3FB613B68B4
:10185C001B68FA691340BB61BA69FB699A4240F094
:10186C0050813B685B68974A93425ED0954A93429D
:10187C0075D8954A934258D0934A93426FD8934A5D
:10188C00934252D0914A934269D8914A93424CD098
:10189C008F4A934263D88F4A934246D08D4A9342E3
:1018AC005DD8122B2AD8122B59D801A252F823F04A
:1018BC0037190008111900082319000865190008C8
:1018CC006B1900086B1900086B1900086B190008DC
:1018DC006B1900086B1900086B1900086B190008CC
:1018EC006B1900086B1900086B1900086B190008BC
:1018FC006B190008191900082D190008764A934233
:10190C0013D02CE03B68DB683B6229E03B68DB686A
:10191C0004333B6224E03B68DB6808333B621FE026
:10192C003B68DB680C333B621AE03B689B68002B1E
:10193C0002D104233B6213E03B689B68012B05D169
:10194C0008233B627B68FA691A6109E008233B6251
:10195C007B68FA695A6103E000233B6200E000BF38
:10196C00BB69FF2B01D87B6801E07B6804337B618A
:10197C00BB69FF2B02D87B6A9B0002E07B6A083BA9
:10198C009B003B617B691A680F213B6901FA03F3E9
:10199C00DB431A40396A3B6901FA03F31A437B694A
:1019AC001A603B685B6803F08053002B00F0A98041
:1019BC004A4B9B69494A43F001039361474B9B692E
:1019CC0003F00103BB60BB68454A7B6A9B0802338A
:1019DC0052F82330FB607B6A03F003039B000F2259
:1019EC0002FA03F3DB43FA681340FB607B683D4A61
:1019FC0093420DD07B683C4A934207D07B683B4AAC
:101A0C00934201D1022304E0032302E0012300E00E
:101A1C0000237A6A02F0030292009340FA6813439F
:101A2C00FB602F497B6A9B080233FA6841F823203C
:101A3C003B685B6803F48013002B06D02C4B9A6830
:101A4C002B49BB6913438B6006E0294B9A68BB6931
:101A5C00DB43274913408B603B685B6803F400133E
:101A6C00002B06D0224BDA682149BB691343CB60AB
:101A7C0006E01F4BDA68BB69DB431D491340CB60A2
:101A8C003B685B6803F40033002B06D0184B5A6894
:101A9C001749BB6913434B6006E0154B5A68BB6989
:101AAC00DB43134913404B603B685B6803F48033A2
:101ABC00002B1FD00E4B1A680D49BB6913430B60EA
:101ACC001FE000BF00003210000031100000221097
:101ADC000000211000001210000011100010024034
:101AEC000000014000080140000C014000100140C2
:101AFC00000401400B4B1A68BB69DB4309491340D6
:101B0C000B607B6A01337B623B681A687B6A22FA42
:101B1C0003F3002B7FF496AE00BF00BF2C37BD46FD
:101B2C0080BC70470004014080B485B000AF786081
:101B3C000B467B807B689A687B881340002B02D015
:101B4C000123FB7301E00023FB73FB7B1846143766
:101B5C00BD4680BC704780B483B000AF78600B4644
:101B6C007B8013467B707B78002B03D07A887B6854
:101B7C001A6103E07B881A047B681A6100BF0C377A
:101B8C00BD4680BC7047000080B586B000AF786061
:101B9C007B68002B01D1012372E27B681B6803F088
:101BAC000103002B00F08780924B5B6803F00C0361
:101BBC00042B0CD08F4B5B6803F00C03082B12D159
:101BCC008C4B5B6803F48033B3F5803F0BD1894BAE
:101BDC001B6803F40033002B6CD07B685B68002B14
:101BEC0068D101234CE27B685B68B3F5803F06D17A
:101BFC00804B1B687F4A43F4803313602EE07B6874
:101C0C005B68002B0CD17B4B1B687A4A23F4803326
:101C1C001360784B1B68774A23F4802313601DE014
:101C2C007B685B68B3F5A02F0CD1724B1B68714AB3
:101C3C0043F4802313606F4B1B686E4A43F480336C
:101C4C0013600BE06B4B1B686A4A23F48033136000
:101C5C00684B1B68674A23F4802313607B685B68BE
:101C6C00002B13D0FFF7CCFC386108E0FFF7C8FC61
:101C7C0002463B69D31A642B01D9032300E25D4B66
:101C8C001B6803F40033002BF0D014E0FFF7B8FC12
:101C9C00386108E0FFF7B4FC02463B69D31A642BA9
:101CAC0001D90323ECE1534B1B6803F40033002BE5
:101CBC00F0D100E000BF7B681B6803F00203002B2F
:101CCC0063D04C4B5B6803F00C03002B0BD0494BDF
:101CDC005B6803F00C03082B1CD1464B5B6803F4C8
:101CEC008033002B16D1434B1B6803F00203002BEF
:101CFC0005D07B681B69012B01D00123C0E13D4B52
:101D0C001B6823F0F8027B685B69DB0039491343DD
:101D1C000B603AE07B681B69002B20D0364B01220C
:101D2C001A60FFF76DFC386108E0FFF769FC0246AA
:101D3C003B69D31A022B01D90323A1E12D4B1B685C
:101D4C0003F00203002BF0D02A4B1B6823F0F8029F
:101D5C007B685B69DB00274913430B6015E0264B5E
:101D6C0000221A60FFF74CFC386108E0FFF748FCD2
:101D7C0002463B69D31A022B01D9032380E11D4B88
:101D8C001B6803F00203002BF0D17B681B6803F087
:101D9C000803002B3AD07B689B69002B19D0174B9A
:101DAC0001221A60FFF72CFC386108E0FFF728FCD1
:101DBC0002463B69D31A022B01D9032360E10D4B78
:101DCC005B6A03F00203002BF0D0012000F09CFAB8
:101DDC001CE00A4B00221A60FFF712FC38610FE07E
:101DEC00FFF70EFC02463B69D31A022B08D90323DA
:101DFC0046E100BF00100240000042428004424213
:101E0C00924B5B6A03F00203002BE9D17B681B68E1
:101E1C0003F00403002B00F0A6800023FB758B4B12
:101E2C00DB6903F08053002B0DD1884BDB69874AAB
:101E3C0043F08053D361854BDB6903F08053BB6067
:101E4C00BB680123FB75824B1B6803F48073002B6A
:101E5C0018D17F4B1B687E4A43F480731360FFF7E5
:101E6C00CFFB386108E0FFF7CBFB02463B69D31A86
:101E7C00642B01D9032303E1754B1B6803F48073B6
:101E8C00002BF0D07B68DB68012B06D16F4B1B6AF3
:101E9C006E4A43F0010313622DE07B68DB68002B74
:101EAC000CD16A4B1B6A694A23F001031362674B1E
:101EBC001B6A664A23F0040313621CE07B68DB6830
:101ECC00052B0CD1614B1B6A604A43F0040313626F
:101EDC005E4B1B6A5D4A43F0010313620BE05B4BE4
:101EEC001B6A5A4A23F001031362584B1B6A574A68
:101EFC0023F0040313627B68DB68002B15D0FFF71B
:101F0C007FFB38610AE0FFF77BFB02463B69D31A83
:101F1C0041F28832934201D90323B1E04B4B1B6A47
:101F2C0003F00203002BEED014E0FFF769FB3861DD
:101F3C000AE0FFF765FB02463B69D31A41F288328F
:101F4C00934201D903239BE0404B1B6A03F002032D
:101F5C00002BEED1FB7D012B05D13C4BDB693B4AC1
:101F6C0023F08053D3617B68DB69002B00F0878002
:101F7C00364B5B6803F00C03082B61D07B68DB6984
:101F8C00022B46D1334B00221A60FFF739FB386124
:101F9C0008E0FFF735FB02463B69D31A022B01D947
:101FAC0003236DE0294B1B6803F00073002BF0D169
:101FBC007B681B6AB3F5803F08D1244B5B6823F424
:101FCC0000327B689B68214913434B601F4B5B6855
:101FDC0023F474127B68196A7B685B6A0B431B4998
:101FEC0013434B601B4B01221A60FFF709FB38614E
:101FFC0008E0FFF705FB02463B69D31A022B01D917
:10200C0003233DE0114B1B6803F00073002BF0D051
:10201C0035E0104B00221A60FFF7F2FA386108E045
:10202C00FFF7EEFA02463B69D31A022B01D90323C0
:10203C0026E0064B1B6803F00073002BF0D11EE06A
:10204C007B68DB69012B07D1012319E000100240EA
:10205C0000700040600042420B4B5B68FB60FB6809
:10206C0003F480327B681B6A9A4206D1FB6803F446
:10207C0070127B685B6A9A4201D0012300E0002356
:10208C0018461837BD4680BD0010024080B584B09C
:10209C0000AF786039607B68002B01D10123D0E060
:1020AC006A4B1B6803F007033A689A4210D9674BD6
:1020BC001B6823F0070265493B6813430B60634BB5
:1020CC001B6803F007033A689A4201D00123B8E079
:1020DC007B681B6803F00203002B20D07B681B6815
:1020EC0003F00403002B05D0594B5B68584A43F4AA
:1020FC00E06353607B681B6803F00803002B05D07A
:10210C00534B5B68524A43F460535360504B5B68CB
:10211C0023F0F0027B689B684D4913434B607B684E
:10212C001B6803F00103002B40D07B685B68012B1C
:10213C0007D1474B1B6803F40033002B15D1012347
:10214C007FE07B685B68022B07D1414B1B6803F077
:10215C000073002B09D1012373E03D4B1B6803F086
:10216C000203002B01D101236BE0394B5B6823F098
:10217C0003027B685B68364913434B60FFF740FAF8
:10218C00F8600AE0FFF73CFA0246FB68D31A41F20A
:10219C008832934201D9032353E02D4B5B6803F043
:1021AC000C027B685B689B009A42EBD1274B1B6847
:1021BC0003F007033A689A4210D2244B1B6823F0B1
:1021CC00070222493B6813430B60204B1B6803F04A
:1021DC0007033A689A4201D0012332E07B681B68FE
:1021EC0003F00403002B08D0194B5B6823F4E06266
:1021FC007B68DB68164913434B607B681B6803F0F4
:10220C000803002B09D0124B5B6823F460527B68E7
:10221C001B69DB000E4913434B6000F021F80246AA
:10222C000B4B5B681B0903F00F030A49CB5C22FACA
:10223C0003F3094A1360094B1B681846FFF79EF914
:10224C00002318461037BD4680BD00BF0020024059
:10225C0000100240902B0008480000204C00002089
:10226C0080B487B000AF0023FB600023BB60002369
:10227C007B6100237B6000233B611E4B5B68FB6032
:10228C00FB6803F00C03042B02D0082B03D027E0CF
:10229C00194B3B6127E0FB689B0C03F00F03174ABB
:1022AC00D35C7B60FB6803F48033002B10D0114BA4
:1022BC005B685B0C03F00103114AD35CBB607B6869
:1022CC000D4A03FB02F2BB68B2FBF3F37B6104E043
:1022DC007B680C4A02FB03F37B617B693B6102E088
:1022EC00054B3B6100BF3B6918461C37BD4680BCA3
:1022FC00704700BF0010024000127A00A02B0008AB
:10230C00B02B000800093D0080B485B000AF7860A8
:10231C000A4B1B680A4AA2FB03235B0A7A6802FB7E
:10232C0003F3FB6000BFFB685A1EFA60002BF9D167
:10233C0000BF00BF1437BD4680BC7047480000206A
:10234C00D34D621080B582B000AF78607B68002BF3
:10235C0001D1012341E07B6893F83D30DBB2002BC7
:10236C0006D17B68002283F83C207868FFF704F8DC
:10237C007B68022283F83D207B681A687B680433F3
:10238C001946104600F06EFA7B68012283F846204D
:10239C007B68012283F83E207B68012283F83F2072
:1023AC007B68012283F840207B68012283F841205E
:1023BC007B68012283F842207B68012283F843204A
:1023CC007B68012283F844207B68012283F8452036
:1023DC007B68012283F83D20002318460837BD4650
:1023EC0080BD000080B485B000AF78607B6893F846
:1023FC003D30DBB2012B01D0012335E07B6802229A
:10240C0083F83D207B681B68DA687B681B6842F0A8
:10241C000102DA607B681B68164A934209D07B681C
:10242C001B68B3F1804F04D07B681B68124A93423F
:10243C0011D17B681B689B6803F00703FB60FB688A
:10244C00062B10D07B681B681A687B681B6842F0EF
:10245C0001021A6007E07B681B681A687B681B68BE
:10246C0042F001021A60002318461437BD4680BCA6
:10247C00704700BF002C01400004004080B582B0C2
:10248C0000AF78607B681B681B6903F00203022BAA
:10249C0022D17B681B68DB6803F00203022B1BD183
:1024AC007B681B686FF002021A617B6801221A7745
:1024BC007B681B689B6903F00303002B03D07868CF
:1024CC0000F0B4F905E0786800F0A7F9786800F03E
:1024DC00B6F97B6800221A777B681B681B6903F0CE
:1024EC000403042B22D17B681B68DB6803F0040314
:1024FC00042B1BD17B681B686FF004021A617B688C
:10250C0002221A777B681B689B6903F44073002BCB
:10251C0003D0786800F08AF905E0786800F07DF95E
:10252C00786800F08CF97B6800221A777B681B684E
:10253C001B6903F00803082B22D17B681B68DB683E
:10254C0003F00803082B1BD17B681B686FF0080293
:10255C001A617B6804221A777B681B68DB6903F0BD
:10256C000303002B03D0786800F060F905E078686D
:10257C0000F053F9786800F062F97B6800221A7752
:10258C007B681B681B6903F01003102B22D17B683E
:10259C001B68DB6803F01003102B1BD17B681B68D6
:1025AC006FF010021A617B6808221A777B681B682F
:1025BC00DB6903F44073002B03D0786800F036F924
:1025CC0005E0786800F029F9786800F038F97B6844
:1025DC0000221A777B681B681B6903F00103012B2F
:1025EC000ED17B681B68DB6803F00103012B07D15C
:1025FC007B681B686FF001021A617868FEF7FEFCBD
:10260C007B681B681B6903F08003802B0ED17B68F1
:10261C001B68DB6803F08003802B07D17B681B6889
:10262C006FF080021A61786800F06BFA7B681B68A7
:10263C001B6903F04003402B0ED17B681B68DB68E1
:10264C0003F04003402B07D17B681B686FF04002FE
:10265C001A61786800F0FCF87B681B681B6903F052
:10266C002003202B0ED17B681B68DB6803F0200352
:10267C00202B07D17B681B686FF020021A617868E9
:10268C0000F036FA00BF0837BD4680BD80B584B077
:10269C0000AF786039600023FB737B6893F83C30A3
:1026AC00012B01D10223B4E07B68012283F83C208A
:1026BC007B68022283F83D207B681B689B68BB60AB
:1026CC00BB6823F07703BB60BB6823F47F43BB601C
:1026DC007B681B68BA689A603B681B68B3F5005F3F
:1026EC003ED0B3F5005F00F28780B3F5805F00F059
:1026FC008680B3F5805F7FD8702B1AD0702B7BD877
:10270C00602B50D0602B77D8502B3CD0502B73D8EB
:10271C00402B58D0402B6FD8302B64D0302B6BD83B
:10272C00202B60D0202B67D8002B5CD0102B5AD0DC
:10273C0062E07B6818683B6899683B685A683B683C
:10274C00DB6800F05EF97B681B689B68BB60BB684C
:10275C0043F07703BB607B681B68BA689A604FE0F4
:10276C007B6818683B6899683B685A683B68DB680B
:10277C0000F047F97B681B689A687B681B6842F419
:10278C0080429A603CE07B6818683B6859683B68FB
:10279C00DB681A4600F0BEF87B681B6850211846AF
:1027AC0000F015F92CE07B6818683B6859683B68A9
:1027BC00DB681A4600F0DCF87B681B686021184661
:1027CC0000F005F91CE07B6818683B6859683B68A9
:1027DC00DB681A4600F09EF87B681B68402118469F
:1027EC0000F0F5F80CE07B681A683B681B6819462A
:1027FC00104600F0ECF803E00123FB7300E000BF8F
:10280C007B68012283F83D207B68002283F83C2002
:10281C00FB7B18461037BD4680BD80B483B000AF3B
:10282C00786000BF0C37BD4680BC704780B483B065
:10283C0000AF786000BF0C37BD4680BC704780B4D9
:10284C0083B000AF786000BF0C37BD4680BC7047CA
:10285C0080B483B000AF786000BF0C37BD4680BC3D
:10286C007047000080B485B000AF786039607B6839
:10287C001B68FB607B68254A934207D07B68B3F1E9
:10288C00804F03D07B68224A934208D1FB6823F027
:10289C007003FB603B685B68FA681343FB607B6802
:1028AC001A4A934207D07B68B3F1804F03D07B6800
:1028BC00174A934208D1FB6823F44073FB603B68D2
:1028CC00DB68FA681343FB60FB6823F080023B680B
:1028DC005B691343FB607B68FA681A603B689A6813
:1028EC007B68DA623B681A687B689A627B68074A85
:1028FC00934203D13B681A697B681A637B68012297
:10290C005A6100BF1437BD4680BC7047002C014093
:10291C000004004080B487B000AFF860B9607A6002
:10292C00FB681B6A7B61FB681B6A23F00102FB6876
:10293C001A62FB689B693B613B6923F0F0033B61C6
:10294C007B681B013A6913433B617B6923F00A03E3
:10295C007B617A69BB6813437B61FB683A699A6156
:10296C00FB687A691A6200BF1C37BD4680BC704791
:10297C0080B487B000AFF860B9607A60FB681B6AFE
:10298C007B61FB681B6A23F01002FB681A62FB6810
:10299C009B693B613B6923F470433B617B681B0380
:1029AC003A6913433B617B6923F0A0037B61BB68ED
:1029BC001B017A6913437B61FB683A699A61FB6876
:1029CC007A691A6200BF1C37BD4680BC704780B460
:1029DC0085B000AF786039607B689B68FB60FB68F2
:1029EC0023F07003FB603A68FB68134343F0070362
:1029FC00FB607B68FA689A6000BF1437BD4680BCE8
:102A0C00704780B487B000AFF860B9607A603B6003
:102A1C00FB689B687B617B6923F47F437B613B682C
:102A2C001A027B681A43BB6813437A6913437B61B0
:102A3C00FB687A699A6000BF1C37BD4680BC704742
:102A4C0080B485B000AF786039607B6893F83C3017
:102A5C00012B01D1022341E07B68012283F83C2049
:102A6C007B68022283F83D207B681B685B68FB60F7
:102A7C007B681B689B68BB60FB6823F07003FB6082
:102A8C003B681B68FA681343FB607B681B68FA6839
:102A9C005A607B681B68144A934209D07B681B6898
:102AAC00B3F1804F04D07B681B68104A93420CD161
:102ABC00BB6823F08003BB603B685B68BA68134358
:102ACC00BB607B681B68BA689A607B68012283F8DC
:102ADC003D207B68002283F83C20002318461437E5
:102AEC00BD4680BC704700BF002C01400004004074
:102AFC0080B483B000AF786000BF0C37BD4680BC9B
:102B0C00704780B483B000AF786000BF0C37BD460F
:102B1C0080BC704770B500260C4D0D4C641BA41086
:102B2C00A64209D100F022F800260A4D0A4C641B7B
:102B3C00A410A64205D170BD55F8043B9847013648
:102B4C00EEE755F8043B98470136F2E7B42B000842
:102B5C00B42B0008B42B0008B82B00080346024421
:102B6C00934200D1704703F8011BF9E7F8B500BF99
:102B7C00F8BC08BC9E467047F8B500BFF8BC08BC52
:042B8C009E467047AA
:102B9000000000000000000001020304060708090D
:102BA00002030405060708090A0B0C0D0E0F10108E
:042BB000010200001E
:042BB40031010008E3
:042BB8000D01000803
:102BBC000100000001000000010000000100000005
:102BCC00F401000001000000010000000100000001
:102BDC0001000000F40100000100000001000000F1
:102BEC000100000001000000F401000007000000DB
:102BFC0002000000050000000024F400100000009A
:042C0C0001000000C3
:0400000508001511C9
:00000001FF
